{
  "address": "0xe7f1725E7734CE288F8367e1Bb143E90bb3F0512",
  "abi": [
    {
      "inputs": [
        {
          "internalType": "address",
          "name": "token_addr",
          "type": "address"
        }
      ],
      "stateMutability": "nonpayable",
      "type": "constructor"
    },
    {
      "inputs": [],
      "name": "deposit",
      "outputs": [
        {
          "internalType": "uint256",
          "name": "",
          "type": "uint256"
        }
      ],
      "stateMutability": "payable",
      "type": "function"
    },
    {
      "inputs": [],
      "name": "ethToToken",
      "outputs": [
        {
          "internalType": "uint256",
          "name": "",
          "type": "uint256"
        }
      ],
      "stateMutability": "payable",
      "type": "function"
    },
    {
      "inputs": [
        {
          "internalType": "uint256",
          "name": "tokens",
          "type": "uint256"
        }
      ],
      "name": "init",
      "outputs": [
        {
          "internalType": "uint256",
          "name": "",
          "type": "uint256"
        }
      ],
      "stateMutability": "payable",
      "type": "function"
    },
    {
      "inputs": [
        {
          "internalType": "address",
          "name": "",
          "type": "address"
        }
      ],
      "name": "liquidity",
      "outputs": [
        {
          "internalType": "uint256",
          "name": "",
          "type": "uint256"
        }
      ],
      "stateMutability": "view",
      "type": "function"
    },
    {
      "inputs": [
        {
          "internalType": "uint256",
          "name": "input_amount",
          "type": "uint256"
        },
        {
          "internalType": "uint256",
          "name": "input_reserve",
          "type": "uint256"
        },
        {
          "internalType": "uint256",
          "name": "output_reserve",
          "type": "uint256"
        }
      ],
      "name": "price",
      "outputs": [
        {
          "internalType": "uint256",
          "name": "",
          "type": "uint256"
        }
      ],
      "stateMutability": "view",
      "type": "function"
    },
    {
      "inputs": [
        {
          "internalType": "uint256",
          "name": "tokens",
          "type": "uint256"
        }
      ],
      "name": "tokenToEth",
      "outputs": [
        {
          "internalType": "uint256",
          "name": "",
          "type": "uint256"
        }
      ],
      "stateMutability": "nonpayable",
      "type": "function"
    },
    {
      "inputs": [],
      "name": "totalLiquidity",
      "outputs": [
        {
          "internalType": "uint256",
          "name": "",
          "type": "uint256"
        }
      ],
      "stateMutability": "view",
      "type": "function"
    },
    {
      "inputs": [
        {
          "internalType": "uint256",
          "name": "amount",
          "type": "uint256"
        }
      ],
      "name": "withdraw",
      "outputs": [
        {
          "internalType": "uint256",
          "name": "",
          "type": "uint256"
        },
        {
          "internalType": "uint256",
          "name": "",
          "type": "uint256"
        }
      ],
      "stateMutability": "nonpayable",
      "type": "function"
    }
  ],
  "transactionHash": "0x0a3632a3b4031314639e682743d6f15e12e5e576cc6da9624c93316ce4c4532a",
  "args": [
    "0x5FbDB2315678afecb367f032d93F642f64180aa3"
  ],
  "solcInputHash": "fcf49fd3f828348ce8a2991470dd7ec0",
  "bytecode": "0x608060405234801561001057600080fd5b50604051610b07380380610b078339818101604052602081101561003357600080fd5b5051600080546001600160a01b039092166001600160a01b0319909216919091179055610aa2806100656000396000f3fe60806040526004361061007b5760003560e01c8063789770f41161004e578063789770f41461014a578063b7b0422d14610152578063b8c876b11461016f578063d0e30db0146101a25761007b565b806315770f92146100805780632071a9f4146100a75780632e1a7d4d146100dd57806370b2a30f14610120575b600080fd5b34801561008c57600080fd5b506100956101aa565b60408051918252519081900360200190f35b3480156100b357600080fd5b50610095600480360360608110156100ca57600080fd5b50803590602081013590604001356101b0565b3480156100e957600080fd5b506101076004803603602081101561010057600080fd5b5035610216565b6040805192835260208301919091528051918290030190f35b34801561012c57600080fd5b506100956004803603602081101561014357600080fd5b50356103e2565b610095610530565b6100956004803603602081101561016857600080fd5b5035610659565b34801561017b57600080fd5b506100956004803603602081101561019257600080fd5b50356001600160a01b031661075f565b610095610771565b60015481565b6000806101c5856103e563ffffffff61093216565b905060006101d9828563ffffffff61093216565b905060006101ff836101f3886103e863ffffffff61093216565b9063ffffffff61099416565b905080828161020a57fe5b04979650505050505050565b60008054604080516370a0823160e01b81523060048201529051839283926001600160a01b03909116916370a0823191602480820192602092909190829003018186803b15801561026657600080fd5b505afa15801561027a573d6000803e3d6000fd5b505050506040513d602081101561029057600080fd5b50516001549091506000906102ab864763ffffffff61093216565b816102b257fe5b04905060006001546102cd848861093290919063ffffffff16565b816102d457fe5b3360009081526002602052604090205491900491506102f9908363ffffffff6109ee16565b3360009081526002602052604090205560015461031c908363ffffffff6109ee16565b600155604051339083156108fc029084906000818181858888f1935050505015801561034c573d6000803e3d6000fd5b50600080546040805163a9059cbb60e01b81523360048201526024810185905290516001600160a01b039092169263a9059cbb926044808401936020939083900390910190829087803b1580156103a257600080fd5b505af11580156103b6573d6000803e3d6000fd5b505050506040513d60208110156103cc57600080fd5b50516103d757600080fd5b909350915050915091565b60008054604080516370a0823160e01b8152306004820152905183926001600160a01b0316916370a08231916024808301926020929190829003018186803b15801561042d57600080fd5b505afa158015610441573d6000803e3d6000fd5b505050506040513d602081101561045757600080fd5b5051905060006104688483476101b0565b604051909150339082156108fc029083906000818181858888f19350505050158015610498573d6000803e3d6000fd5b5060008054604080516323b872dd60e01b81523360048201523060248201526044810188905290516001600160a01b03909216926323b872dd926064808401936020939083900390910190829087803b1580156104f457600080fd5b505af1158015610508573d6000803e3d6000fd5b505050506040513d602081101561051e57600080fd5b505161052957600080fd5b9392505050565b60008054604080516370a0823160e01b8152306004820152905183926001600160a01b0316916370a08231916024808301926020929190829003018186803b15801561057b57600080fd5b505afa15801561058f573d6000803e3d6000fd5b505050506040513d60208110156105a557600080fd5b5051905060006105c5346105bf478263ffffffff6109ee16565b846101b0565b600080546040805163a9059cbb60e01b81523360048201526024810185905290519394506001600160a01b039091169263a9059cbb92604480840193602093929083900390910190829087803b15801561061e57600080fd5b505af1158015610632573d6000803e3d6000fd5b505050506040513d602081101561064857600080fd5b505161065357600080fd5b91505090565b60006001546000146106b2576040805162461bcd60e51b815260206004820181905260248201527f4445583a696e6974202d20616c726561647920686173206c6971756964697479604482015290519081900360640190fd5b47600181905533600081815260026020908152604080832094909455815484516323b872dd60e01b815260048101949094523060248501526044840187905293516001600160a01b03909416936323b872dd93606480820194918390030190829087803b15801561072257600080fd5b505af1158015610736573d6000803e3d6000fd5b505050506040513d602081101561074c57600080fd5b505161075757600080fd5b505060015490565b60026020526000908152604090205481565b600080610784473463ffffffff6109ee16565b60008054604080516370a0823160e01b8152306004820152905193945091926001600160a01b03909116916370a08231916024808301926020929190829003018186803b1580156107d457600080fd5b505afa1580156107e8573d6000803e3d6000fd5b505050506040513d60208110156107fe57600080fd5b50519050600061082e60018461081a348663ffffffff61093216565b8161082157fe5b049063ffffffff61099416565b90506000836108486001543461093290919063ffffffff16565b8161084f57fe5b336000908152600260205260409020549190049150610874908263ffffffff61099416565b33600090815260026020526040902055600154610897908263ffffffff61099416565b60015560008054604080516323b872dd60e01b81523360048201523060248201526044810186905290516001600160a01b03909216926323b872dd926064808401936020939083900390910190829087803b1580156108f557600080fd5b505af1158015610909573d6000803e3d6000fd5b505050506040513d602081101561091f57600080fd5b505161092a57600080fd5b935050505090565b6000826109415750600061098e565b8282028284828161094e57fe5b041461098b5760405162461bcd60e51b8152600401808060200182810382526021815260200180610a4c6021913960400191505060405180910390fd5b90505b92915050565b60008282018381101561098b576040805162461bcd60e51b815260206004820152601b60248201527f536166654d6174683a206164646974696f6e206f766572666c6f770000000000604482015290519081900360640190fd5b600082821115610a45576040805162461bcd60e51b815260206004820152601e60248201527f536166654d6174683a207375627472616374696f6e206f766572666c6f770000604482015290519081900360640190fd5b5090039056fe536166654d6174683a206d756c7469706c69636174696f6e206f766572666c6f77a2646970667358221220ba5e60d104c64fa7f43e985d3c683eae597c8cf5855a7e5b9bd1c8a3265b87f564736f6c63430006070033",
  "devdoc": {
    "methods": {}
  },
  "userdoc": {
    "methods": {}
  },
  "storageLayout": {
    "storage": [
      {
        "astId": 991,
        "contract": "contracts/DEX.sol:DEX",
        "label": "token",
        "offset": 0,
        "slot": "0",
        "type": "t_contract(IERC20)935"
      },
      {
        "astId": 1005,
        "contract": "contracts/DEX.sol:DEX",
        "label": "totalLiquidity",
        "offset": 0,
        "slot": "1",
        "type": "t_uint256"
      },
      {
        "astId": 1009,
        "contract": "contracts/DEX.sol:DEX",
        "label": "liquidity",
        "offset": 0,
        "slot": "2",
        "type": "t_mapping(t_address,t_uint256)"
      }
    ],
    "types": {
      "t_address": {
        "encoding": "inplace",
        "label": "address",
        "numberOfBytes": "20"
      },
      "t_contract(IERC20)935": {
        "encoding": "inplace",
        "label": "contract IERC20",
        "numberOfBytes": "20"
      },
      "t_mapping(t_address,t_uint256)": {
        "encoding": "mapping",
        "key": "t_address",
        "label": "mapping(address => uint256)",
        "numberOfBytes": "32",
        "value": "t_uint256"
      },
      "t_uint256": {
        "encoding": "inplace",
        "label": "uint256",
        "numberOfBytes": "32"
      }
    }
  }
}